:1000000026C03EC03DC03CC03BC075C139C038C0F1
:1000100037C036C035C034C033C032C031C0000034
:10002000000037000000000038000000000036002B
:10003000020202020202020202020102040810206D
:100040002004100801020000040000000000112438
:100050001FBECFEDCDBF10E0A0E6B0E0E0ECF4E0D5
:1000600002C005900D92A236B107D9F720E0A2E6B2
:10007000B0E001C01D92A137B207E1F786D11EC2E0
:10008000BFCF823089F018F4813051F00895833069
:1000900019F0843009F008958CB58F7D8CBD0895DA
:1000A0008AB58F778ABD08958AB58F7DFBCFCF93B0
:1000B000DF93282F30E0F901EC5BFF4F8491F901C9
:1000C000E65CFF4FD491F901E05DFF4FC491CC2372
:1000D00099F08111D6DFEC2FF0E0EE0FFF1FE65D07
:1000E000FF4FA591B491EC91ED2381E090E009F4EC
:1000F00080E0DF91CF91089580E090E0FACF1F93E8
:10010000CF93DF93282F30E0F901EC5BFF4F849110
:10011000F901E65CFF4FD491F901E05DFF4FC49116
:10012000CC23A1F0162F8111ACDFEC2FF0E0EE0F05
:10013000FF1FEC5DFF4FA591B4918FB7F894EC9140
:10014000111108C0D095DE23DC938FBFDF91CF91D2
:100150001F910895DE2BF8CFCF93DF9390E0FC0141
:10016000E65CFF4F2491805D9F4FFC0184918823C2
:10017000C9F090E0880F991FFC01E25EFF4FA59146
:10018000B491FC01EC5DFF4FC591D49161110DC09C
:100190009FB7F8948C91209582238C938881282393
:1001A00028839FBFDF91CF910895623051F49FB7AC
:1001B000F8943C91822F809583238C93E8812E2B99
:1001C000EFCF8FB7F894EC912E2B2C938FBFEACF03
:1001D0001F93CF93DF93182FEB0161E0BDDF2097D2
:1001E00031F460E0812FDF91CF911F9188CFCF3F15
:1001F000D10511F461E0F6CFE12FF0E0EC5BFF4FA9
:10020000E491E230C1F030F4E13069F0C038D1055A
:100210008CF7E7CFE330A1F0E430C1F78CB5806212
:100220008CBDCBBD04C08AB580688ABDC9BDDF91D5
:10023000CF911F9108958AB580628ABDC8BDF7CF5E
:100240008CB580628CBDCEBDF2CF3FB7F894809163
:100250006D0090916E00A0916F00B091700022B778
:1002600008B601FE05C02F3F19F00196A11DB11D72
:100270003FBFBA2FA92F982F8827BC01CD01620F4D
:10028000711D811D911D46E0660F771F881F991F04
:100290004A95D1F708958F929F92AF92BF92CF92D5
:1002A000DF92EF92FF924B015C01CFDF6B017C018B
:1002B000CCDF6C197D098E099F09683E734081056A
:1002C0009105B0F321E0821A9108A108B10888EEE7
:1002D000C80E83E0D81EE11CF11C81149104A10416
:1002E000B10431F7FF90EF90DF90CF90BF90AF90C7
:1002F0009F908F9008951F920F920FB60F92112426
:100300002F933F938F939F93AF93BF9380916900F7
:1003100090916A00A0916B00B0916C0030916800E0
:1003200020E3230F2D3758F54096A11DB11D2093D2
:1003300068008093690090936A00A0936B00B0936B
:100340006C0080916D0090916E00A0916F00B09153
:1003500070000196A11DB11D80936D0090936E00F9
:10036000A0936F00B0937000BF91AF919F918F9158
:100370003F912F910F900FBE0F901F90189523EB78
:10038000230F4196A11DB11DD2CF78948AB582600A
:100390008ABD8AB581608ABD83B7826083BF83B717
:1003A000816083BF89B7826089BF80B7826080BF68
:1003B0003298319A309A379A8CB580648CBD61E05E
:1003C00081E0CADE61E080E0C7DE60E083E0C4DE99
:1003D00062E084E0C1DE60E082E0BEDE00E010E0CA
:1003E00082E0E82EF12C83E062DE5C0190936700EE
:1003F0008093660082E05BDE6C01909365008093E1
:100400006400C0916000D0916100C230D10591F1CB
:10041000C330D105D1F16FEF70E0C130D10571F17A
:10042000AB28E1F5809162009091630018161906DF
:10043000ACF50197909363008093620064E670E0EE
:1004400080E090E028DF84E032DE892B69F4219699
:10045000C430D10574F5D0936100C093600068EC9E
:1004600070E080E090E017DF0115110509F4BBCFC3
:10047000C7DDB9CF609162007091630081E0A8DEB2
:100480006FEF70E080E0A4DECBCF6FEF70E081E033
:100490009FDE6091620070916300F4CFCD2899F6E1
:1004A00080916200909163008F3F910564F6019600
:1004B000C1CFF0926100E0926000D1CFF894FFCFFD
:0204C000010039
:00000001FF
